:020000040800F2
:100000006806002029020008DD0D0008370D0008F1
:10001000D90D0008E3020008510F0008000000009D
:100020000000000000000000000000001B0E00089F
:10003000E702000800000000190E00081D0E00086D
:10004000430200084302000843020008430200087C
:10005000430200084302000843020008430200086C
:10006000430200084302000843020008430200085C
:10007000430200084302000843020008430200084C
:10008000430200084302000843020008430200083C
:10009000430200084302000843020008430200082C
:1000A000430200084302000843020008430200081C
:1000B000430200084302000843020008430200080C
:1000C00043020008430200084302000843020008FC
:1000D00043020008430200084302000843020008EC
:1000E00043020008430200084302000843020008DC
:1000F00043020008430200084302000843020008CC
:1001000043020008430200084302000843020008BB
:1001100043020008430200084302000843020008AB
:10012000430200084302000843020008430200089B
:10013000430200084302000843020008430200088B
:10014000430200084302000843020008430200087B
:10015000430200084302000843020008430200086B
:10016000430200084302000843020008430200085B
:100170004302000843020008430200080000000098
:10018000430200084302000800F002F800F03CF8C7
:100190000AA090E8000C82448344AAF10107DA45E2
:1001A00001D100F031F8AFF2090EBAE80F0013F0F8
:1001B000010F18BFFB1A43F001031847E40D0000BC
:1001C000040E0000103A24BF78C878C1FAD852074C
:1001D00024BF30C830C144BF04680C6070470000C1
:1001E0000023002400250026103A28BF78C1FBD840
:1001F000520728BF30C148BF0B6070471FB500F0E1
:10020000C1FE1FBD10B510BD00F031F81146FFF75B
:10021000F5FF00F09FFE00F04FF803B4FFF7F2FF88
:1002200003BC00F057F80000094880470948004720
:10023000FEE7FEE7FEE7FEE7FEE7FEE7FEE7FEE796
:10024000FEE7FEE704480549054A064B70470000F3
:10025000ED0E0008890100086800002068060020F3
:10026000680200206802002070477047704775469A
:1002700000F02CF8AE4605006946534620F0070012
:10028000854618B020B5FFF7DDFFBDE820404FF0F0
:1002900000064FF000074FF000084FF0000B21F070
:1002A0000701AC46ACE8C009ACE8C009ACE8C0093D
:1002B000ACE8C0098D46704710B50446AFF3008026
:1002C0002046BDE81040FFF7A8BF00000048704777
:1002D0000800002001491820ABBEFEE726000200FE
:1002E000704700BFFEE7704700BFFEE731B500244E
:1002F00000F01AF9044600BF00F016F9001B00993F
:100300008842F9D338BD0000F8B502460B460025F7
:10031000002400200021E1E0012606FA01F51E6814
:1003200006EA0504AC4273D15E68022E02D05E6814
:10033000122E13D1CF0802F1200656F827004E07DF
:10034000F70E0F26BE40B0434F07FF0E1E69BE409A
:100350003043CF0802F1200646F8270010684F000E
:100360000326BE40B0431E7906F003064F00BE4090
:10037000304310605E68012E08D05E68022E05D002
:100380005E68112E02D05E68122E13D190684F0065
:100390000326BE40B0434F00DE68BE40304390604D
:1003A000506801268E40B0431E79C6F300168E4079
:1003B00030435060D0684F000326BE40B0434F002A
:1003C0009E68BE403043D0605E6806F08056B6F14D
:1003D000805FA8D100BF00260096424E366846F4E2
:1003E0008046404F3E603E46366806F480460096A2
:1003F00000BF00BF3C4E8F0856F827008E07370F0E
:100400000F26BE40B043394EB24202D1002629E049
:1004100063E0374EB24201D1012623E0354EB242AD
:1004200001D102261EE0344EB24201D1032619E06A
:10043000324EB24201D1042614E0314EB24201D113
:1004400005260FE02F4EB24201D106260AE02E4EBD
:10045000B24201D1072605E02C4EB24201D1082656
:1004600000E009268F073F0FBE4030431E4E8F0825
:1004700046F82700264E3068A0435E6806F48036B2
:10048000B6F5803F00D12043214E3060361D3068E4
:10049000A0435E6806F40036B6F5003F00D1204365
:1004A0001B4E361D3060361D3068A0435E6806F472
:1004B0008016B6F5801F00D12043154E08363060F7
:1004C000361D3068A0435E6806F40016B6F5001FBE
:1004D00000D120430E4E0C363060491C1029FFF429
:1004E0001BAFF8BD4438024008380140000002400C
:1004F0000004024000080240000C024000100240CC
:100500000014024000180240001C0240002002407B
:10051000003C014042694A40426170470AB1816132
:1005200001E00B04836170470148006870470000D8
:100530000000002002480068401C01490860704724
:100540000000002010B50D48006840F400700B4911
:1005500008600846006840F480600860084600684B
:1005600040F480700860032000F088F8002000F05C
:1005700007F800F019F8002010BD0000003C024010
:1005800070B50446074800684FF47A71B0FBF1F586
:10059000284600F0B2FB00222146501E00F02FF842
:1005A000002070BD0400002010B5032000F066F8A4
:1005B000002211466FF00B0000F021F800221146D6
:1005C0006FF00A0000F01BF8002211466FF00900DE
:1005D00000F015F800221146501F00F010F800221C
:1005E0001146101F00F00BF800221146901E00F07B
:1005F00006F800221146501E00F001F810BD2DE94A
:10060000F05F80460D461646002700F0E9FB0746DE
:1006100039462A46334601F00700C0F1070ABAF10D
:10062000040F02D94FF0040A01E0C0F1070AD146D5
:1006300000F1040ABAF1070F02D24FF0000A01E0FC
:10064000A0F1030AD4464FF0010A0AFA09FAAAF106
:10065000010A0AEA020A0AFA0CFA4FF0010B0BFA35
:100660000CFBABF1010B0BEA030B4AEA0B0421462E
:10067000404600F0BDFBBDE8F09F000000BF00F069
:100680000702064B19684FF6FF031940044B0B4352
:1006900043EA0221014B196000BF70470CED00E0F6
:1006A0000000FA0570B504460D4600266D48006846
:1006B00000F00F00A84209D26A490D700846006890
:1006C00000F00F00A84201D0012070BD207800F09A
:1006D0000200022807D16448006820F0F000A168F9
:1006E000084361490860207800F00100002877D0B5
:1006F0006068012807D15C4808380068C0F34040B2
:10070000B8B90120E1E76068022802D060680328D8
:1007100007D1554808380068C0F3406048B9012047
:10072000D3E7514808380068C0F3400008B90120F9
:10073000CBE74D48006820F00300616808434A4950
:100740000860FFF7F1FE06466068012810D108E056
:10075000FFF7EAFE801B41F28831884201D903206D
:10076000B3E74148006800F00C000428F0D137E0FE
:100770006068022810D108E0FFF7D6FE801B41F226
:100780008831884201D903209FE73748006800F08C
:100790000C000828F0D123E06068032810D108E09D
:1007A000FFF7C2FE801B41F28831884201D9032045
:1007B0008BE72D48006800F00C000C28F0D10FE00A
:1007C00008E0FFF7B1FE801B41F28831884201D971
:1007D00003207AE72448006800F00C000028F0D1DC
:1007E0002048006800F00F00A84209D91D490D708B
:1007F0000846006800F00F00A84201D0012064E71D
:10080000207800F00400042807D11748006820F47D
:10081000E050E168084314490860207800F00800BF
:10082000082808D11048006820F46040216940EA97
:10083000C1000D49086000F023F80B49096801F078
:10084000F001F02292FAA2F2B2FA82F2D140074A03
:10085000515CC840064908600020FFF791FE002067
:1008600033E70000003C0240083802408E0F0008C9
:1008700004000020014800687047000004000020C8
:1008800070B50021002200230020274C246804F0CA
:100890000C0424B1042C04D0082C41D103E02348DB
:1008A00040E023483EE0204C241F246804F03F0130
:1008B0001D4C241F246804F4800484B11C4CB4FB38
:1008C000F1F5194C241F246847F6C076344096FA97
:1008D000A6F6B6FA86F6F44005FB04F20FE0134CD8
:1008E000B4FBF1F5104C241F246847F6C076344061
:1008F00096FAA6F6B6FA86F6F44005FB04F20A4C20
:10090000241F246804F440344FF4403595FAA5F5CB
:10091000B5FA85F5EC40641C6300B2FBF3F001E02E
:10092000024800BF00BF70BD083802400024F40038
:1009300000127A0038B504460025207800F0010046
:10094000002848D0DE48006800F00C0004280DD0D4
:10095000DB48006800F00C00082811D1D848001FBF
:10096000006800F48000B0F5800F09D1D448083841
:100970000068C0F3404070B3606860BB012038BDC0
:100980002079CF49891F0870606890B1FFF7CCFDCE
:10099000054606E0FFF7C8FD401B642801D9032087
:1009A000EDE7C74808380068C0F340400028F1D0A0
:1009B00011E0FFF7B9FD054606E0FFF7B5FD401B66
:1009C000642801D90320DAE7BD4808380068C0F37D
:1009D00040400028F1D1207800F00200022869D1BF
:1009E000B748006800F00C0058B1B548006800F046
:1009F0000C00082821D1B248001F006800F48000D4
:100A0000D8B9AF4808380068C0F3400020B1E068AA
:100A1000012801D00120B2E7A9480838006820F079
:100A2000F800F82292FAA2F2B2FA82F22169914019
:100A30000843A349083908603CE0E06828B3012076
:100A4000A0490860FFF770FD054606E0FFF76CFD62
:100A5000401B022801D9032091E799480838006813
:100A6000C0F340000028F1D095480838006820F015
:100A7000F800F82292FAA2F2B2FA82F221699140C9
:100A800008438F490839086014E000208D49086048
:100A9000FFF74AFD054606E0FFF746FD401B02282A
:100AA00001D903206BE7864808380068C0F340008E
:100AB0000028F1D1207800F0080008282CD16069C6
:100AC000A8B1012080490860FFF72EFD054606E029
:100AD000FFF72AFD401B022801D903204FE7784881
:100AE0006C300068C0F340000028F1D014E0002012
:100AF00075490860FFF718FD054606E0FFF714FD8D
:100B0000401B022801D9032039E76D486C3000688A
:100B1000C0F340000028F1D1207800F00400042840
:100B200057D100BF0020009065483830006840F081
:100B300080506349383108600846006800F08050F2
:100B4000009000BF00BF6148006840F480705F49BA
:100B50000860FFF7E9FC054606E0FFF7E5FC401BEF
:100B6000022801D903200AE75848006800F4807081
:100B70000028F2D0207A524968310870A068A0B1EC
:100B8000FFF7D2FC054608E0FFF7CEFC401B41F220
:100B90008831884201D90320F1E64948683000686D
:100BA000C0F340000028EFD013E0FFF7BDFC05467E
:100BB00008E0FFF7B9FC401B41F28831884201D9B7
:100BC0000320DCE63E4868300068C0F3400000289F
:100BD000EFD1A069F0B33A48006800F00C00082893
:100BE00069D0A069022850D1002036490866FFF775
:100BF0009BFC054606E0FFF797FC401B022801D945
:100C00000320BCE62E4808380068C0F34060002886
:100C1000F1D1D4E90701084347F6C07292FAA2F273
:100C2000B2FA82F2616A914008430122A16AC2EBE2
:100C300051014FF4403292FAA2F2B2FA82F291409C
:100C400008434FF0706292FAA2F2B2FA82F2E16ABD
:100C5000914000E031E008431949091F0860012074
:100C600018490866FFF760FC054606E0FFF75CFCE4
:100C7000401B022801D9032081E61148083800688A
:100C8000C0F340600028F1D017E000200D4908664D
:100C9000FFF74AFC054606E0FFF746FC401B02282A
:100CA00001D903206BE6064808380068C0F34060AD
:100CB0000028F1D101E0012061E600205FE600009C
:100CC0000838024000004742800E47420070004052
:100CD000042808D14FF0E021096941F004014FF0E8
:100CE000E022116107E04FF0E021096921F00401E1
:100CF0004FF0E02211617047704770B504462546F9
:100D0000681EB0F1807F01D301200FE0681E4FF014
:100D1000E02148610F214FF0FF3000F069F800201A
:100D20004FF0E021886107200861002070BD10B5F8
:100D3000FFF7E2FF10BD00BFFEE7000000B587B07F
:100D400000BF002001902248006840F004002049C4
:100D500008600846006800F00400019000BF00BF72
:100D600000BF002001900846006840F020000860A5
:100D70000846006800F02000019000BF00BF00BFDF
:100D8000002001900846006840F080000860084696
:100D9000006800F08000019000BF00BF00228915AC
:100DA0000C48FFF7BBFB01224FF4C0610948FFF775
:100DB000B5FB4FF4E0600290012003900020049006
:100DC000059002A90348FFF79FFA07B000BD000095
:100DD000303802400014024000BFFEE770470000B8
:100DE00002480068C0F30220704700000CED00E0EC
:100DF00010B5002807DA0A07140E054A00F00F03A1
:100E00001B1FD45403E00A07130E024A135410BDEB
:100E100018ED00E000E400E07047704710B5FFF700
:100E200089FBFFF784FF10BD10B592B000BF002012
:100E300000902C48006840F080502A49086008461D
:100E4000006800F08050009000BF00BF00BF00208D
:100E500000902548006840F4804023490860084617
:100E6000006800F48040009000BF00BF01200690A1
:100E7000079002200C9041050D9108210E914FF42E
:100E8000A8710F91022110910421119106A8FFF77A
:100E900051FD08B1FFF728FA0F20019002200290BF
:100EA000002003904FF4A05004904FF48050059020
:100EB000052101A8FFF7F6FB08B1FFF715FAFFF7C8
:100EC000D9FC4FF4FA51B0FBF1F42046FFF715FFBF
:100ED0000020FFF7FDFE00221146501EFFF78FFB9A
:100EE00012B010BD40380240007000401448006845
:100EF00040F47000124908601248006840F0010098
:100F00001049086000200F49083108600D4800684A
:100F10000D4908400B4908600C48091D0860081F6E
:100F2000006820F48020091F0860002005490C316A
:100F300008604FF000600249803908607047000087
:100F400088ED00E000380240FFFFF6FE103000247C
:100F500000BFFEE7FFF7F6FAFFF766FFFFF7EEFECA
:100F60000DE04FF400710648FFF7D4FA4FF48061AA
:100F70000348FFF7CFFA4FF4FA70FFF7B7F9F0E73D
:100F8000001402404FF04070E1EE100A704700007C
:100F9000000001020304010203040607080900001F
:100FA000C00F00080000002008000000C401000875
:100FB000C80F00080800002060060000E0010008DB
:080FC000000000000024F40011
:040000050800018965
:00000001FF
