:020000040800F2
:10000000100400209D010008E70A0008610A0008AA
:10001000E50A000885020008ED0B0008000000005A
:100020000000000000000000000000000F0B0008AE
:1000300087020008000000000D0B0008110B0008EB
:10004000B7010008B7010008B7010008B7010008B0
:10005000B7010008B7010008B7010008B7010008A0
:10006000B7010008B7010008B7010008B701000890
:10007000B7010008B7010008B7010008B701000880
:10008000B7010008B7010008B7010008B701000870
:10009000B7010008B7010008B7010008B701000860
:1000A000B7010008B7010008B7010008B701000850
:1000B000B7010008B7010008B7010008B701000840
:1000C000B7010008B7010008B7010008B701000830
:1000D000B7010008B7010008B7010008B701000820
:1000E000B7010008B7010008B7010008B701000810
:1000F000B7010008B7010008B7010008B701000800
:10010000B7010008B7010008B7010008B7010008EF
:10011000B7010008B7010008B7010008B7010008DF
:10012000B7010008B7010008B7010008B7010008CF
:10013000B7010008B7010008B7010008B7010008BF
:10014000B7010008B7010008B7010008B7010008AF
:10015000B7010008B7010008B7010008B70100089F
:10016000B7010008B7010008B7010008B70100088F
:10017000B7010008B7010008B7010008000000003F
:10018000B7010008B7010008DFF80CD000F068F8EC
:1001900000480047F10B0008100400200648804783
:1001A00006480047FEE7FEE7FEE7FEE7FEE7FEE75C
:1001B000FEE7FEE7FEE7FEE7A10B00088901000865
:1001C0002DE9F05F0546002092469B46884606468C
:1001D000814640241BE0284641464746224600F01F
:1001E0002FF853465A46C01A914110D3114618466B
:1001F000224600F016F82D1A67EB01084F462246FA
:100200000120002100F00DF817EB00094E41201EDF
:10021000A4F10104DFDC484631462A464346BDE8E6
:10022000F09F202A04DB203A00FA02F100207047F8
:100230009140C2F1200320FA03F319439040704724
:10024000202A04DB203A21FA02F00021704721FA2B
:1002500002F3D040C2F12002914008431946704792
:10026000064C074D06E0E06840F0010394E8070003
:1002700098471034AC42F6D3FFF78AFF540C0008BD
:10028000740C0008FEE77047B0B5044600F0E0F8D3
:1002900005468F48611C007818BF044400F0D8F868
:1002A000401BA042FAD3B0BD2DE9F84F5C4A4FF095
:1002B00008094FF0010A4FF0000E4FF0000B90427A
:1002C000584A08BF4FF0070902444FEAB223072BF0
:1002D00038BF4FEAB2290022102A08BFBDE8F88FC4
:1002E0000B680AFA02F6334200F094804B6843F040
:1002F0001004122C13D14F4D0BF01C030F2707FADB
:1003000003F405EA52050544D5F820C02CEA040C94
:100310000C6904FA03F343EA0C032B624B680327CE
:1003200003F00305122B07FA0EF4076805FA0EF521
:1003300027EA04076FEA040447EA0507076012D8B2
:100340000AFA03F717F0061F0DD08768CD6827401B
:1003500005FA0EF52F438760C3F3001745689740F1
:10036000B5432F434760C7688D68DB0007EA040781
:1003700005FA0EF547EA0507C7604BD500232A4C5E
:100380000BF00C0500932A4BA4461F461B6843F450
:1003900080433B603B6803F48043009322F00303F7
:1003A0002344254C009FA0461F590F24AC4009FA56
:1003B00005F5A7432F4343F80870DCF800304D687B
:1003C00043EA060715F4803F08BF23EA060715F441
:1003D000003FCCF80070DCF8043043EA060708BFA1
:1003E00023EA060715F4801FCCF80470DCF8083007
:1003F00043EA060708BF23EA06070C4B15F4001F63
:10040000CCF808701C461B6843EA060708BF23EABD
:10041000060727600EF1020E0BF1040B01325BE7B9
:10042000001C02400000FEBF003C01400C3C0140AB
:1004300044380240FCFFFF7F08FCFFFF4269514047
:1004400041617047002A08BF0904816170470000BC
:100450001F488068704700BF1D48017882681144BA
:100460008160704780B50B48016841F400710160FC
:10047000016841F480610160016841F480710160AC
:10048000032000F065F8002000F006F800F022F8E4
:10049000002080BD003C024070B50D4E04464FF474
:1004A0007A713078B1FBF0F07C490968B1FBF0F06B
:1004B00000F0C2FA01250F2C08D838B94FF0FF30F0
:1004C00021460022002500F021F87460284670BD06
:1004D0000000002082B000200B4901904A6842F4DD
:1004E00080424A604A6802F480420192019A009078
:1004F000086840F080500860086800F08050009064
:10050000009802B0704700BF4038024010B5164B4B
:100510001B68C3F3022E0EF1040CAEF103048EF03F
:100520000703BCF1070F4FF0010C38BF0024042B68
:1005300028BF04230CFA03F3013B19400CFA04F31F
:10054000013BA1401A401143BDE8104000F0CCBA75
:1005500005494FF6FF030A681A4060F30A22034870
:1005600010430860704700BF0CED00E00000FA0582
:100570002DE9F04188460446002800F08680454B6E
:10058000D3F8000400F00F00404507D283F8008440
:10059000D3F8000400F00F00404576D1206810F039
:1005A000020F11D0410742BF996841F4E0519960B0
:1005B000010742BF996841F4604199609968A26857
:1005C00021F0F00111439960C0072DD06068811EB1
:1005D000022904D2196811F0007F0BD155E00128DF
:1005E00004D1196811F4003F04D14EE0196811F0EC
:1005F000020F4AD099681D4621F003010843986014
:10060000FFF726FF064641F28837A86861682B4647
:1006100000F00C00B0EB810F06D0FFF719FF801B34
:10062000B842F2D9032431E0D3F8000400F00F00FF
:10063000404507D983F80084D3F8000400F00F0088
:10064000404522D1206810F0040F05D09968E26877
:1006500021F4E05111439960000706D5986821699B
:1006600020F4604040EAC10098601C4600F018F891
:10067000A168094A0024C1F30311515CC84007492D
:1006800008600020FFF708FF00E00124E0B2BDE8A9
:10069000F08100BF00380240420C00080C0000202E
:1006A00010B5E24C606800F00C011248082904D033
:1006B000042904BF104810BD10BD2168236801F053
:1006C0003F02216813F4800FC1F3881105D1A1FB0B
:1006D00000010023FFF774FD03E007484843B0FB27
:1006E000F2F021680222C1F3014102EB4101B0FBAB
:1006F000F1F010BD0024F40000127A002DE9F84357
:100700000446002800F023812078C74EC74FC00759
:10071000B14638D0786800F00C0004282BD07868F7
:1007200000F00C00082803D1386810F4800F22D1A3
:100730006668B6F5803F0AD0D9F80000C846B6F51D
:10074000A02F40F02C8140F48020C8F80000D9F898
:1007500000004E4640F48030C9F80000FFF778FEF4
:100760000546306810F4003F0DD1FFF771FE401BC5
:100770006428F6D9AEE0306810F4003F03D060681A
:10078000002800F0E480207880072FD5786810F0EA
:100790000C0F08D0786800F00C0008280BD13868DE
:1007A00010F4800F07D1306810F0020F17D0E06806
:1007B000012814D0CBE0E1689D48002900F08C802E
:1007C00001210160FFF744FE0546306810F0020F7A
:1007D00005D1FFF73DFE401B0228F6D97AE03068CC
:1007E000216920F0F80040EAC1003060207800075D
:1007F00023D5606980B18E480121C0F8801EFFF7C3
:1008000027FE0546386F10F0020F16D1FFF720FEC5
:10081000401B0228F6D95DE085480021C0F8801E03
:10082000FFF716FE0546386F10F0020F05D0FFF7F0
:100830000FFE401B0228F6D94CE0207840077ED5F9
:10084000F86B4FF0000810F0805F0CD1CDF80080FD
:100850004FF00108F86B40F08050F863F86B00F03F
:10086000805000900098734E484659F8060010F4E6
:10087000807F14D159F8060040F4807049F80600D2
:10088000FFF7E6FD0546484659F8060010F4807F5C
:1008900005D1FFF7DDFD401B0228F4D91AE0A66858
:1008A000012E05D0F86E052E29D140F00400F8661F
:1008B000F86E40F00100F866FFF7CAFD054641F208
:1008C0008836F86E10F0020F32D1FFF7C1FD401BE1
:1008D000B042F6D903203BE000210160FFF7B8FDEC
:1008E00005464846D9F8000010F0020F3FF47EAFED
:1008F000FFF7AEFD411B03200229F2D928E020F0CA
:100900000100F866F86E20F00400F866FFF7A0FD1D
:100910000546002ED3D141F28836F86E10F0020F52
:1009200006D0FFF795FD411B0320B142F5D90FE03A
:10093000B8F1000F1EBFF86B20F08050F863A66975
:10094000002E6ED0786800F00C00082804D1012039
:10095000C0B201B0BDE8F083354900208846086682
:10096000FFF776FD0546022E0CD14846D9F8000067
:1009700010F0007F32D0FFF76BFD411B03200229EE
:10098000F3D9E5E74846D9F8000010F0007F48D0D9
:10099000FFF75EFD411B03200329F3D3D8E720F4C2
:1009A0008030C8F80000D8F8000020F48020C8F893
:1009B0000000FFF74DFD002E054646467FF4D1AE00
:1009C000D9F800004E4610F4003F3FF4DCAEFFF7CC
:1009D0003FFD411B03206429F2D9B9E704F11C064D
:1009E0004FCE0843D90340EA82104FF6FF7291437D
:1009F00040EA0660A1F58031084338600120C8F85C
:100A00006000FFF725FD04464846D9F8000010F0C5
:100A1000007F06D1FFF71CFD011B03200229F3D93B
:100A200096E7002094E700BF0038024004380240F7
:100A3000000047420038FEFF411E0020B0EB116F5E
:100A40001CBF01207047044AF023516003490B701A
:100A5000072190601160704710E000E023ED00E096
:100A6000FEE7000070B586B000251D486C4C0022E2
:100A700005950095016841F004010160016801F0ED
:100A80000401009100990095016841F02001016086
:100A9000016801F02001009100990095016841F082
:100AA000800101604FF48071006800F080000090C8
:100AB00000982046FFF7C6FC20464FF4C061012293
:100AC0000126FFF7BFFC4FF4E060029601A90190F8
:100AD0002046CDE90355FFF7E7FB06B070BD00BF28
:100AE00030380240FEE7704710B5074C054B00F068
:100AF0000F02002804444FEA0110B8BFD418207038
:100B000010BD00BF14ED00E000E400E07047704746
:100B1000FFF7A2BCB0B592B000241F480225CDE972
:100B20000A44CDE908440194016841F08051016014
:100B3000006800F080500190019801941748016806
:100B400041F480410160006800F480400190019808
:100B50004FF480300790012006904FF480000C95F0
:100B60000D9008200E904FF4A870CDE90F050420D9
:100B7000119006A8FFF7C2FD0F200521CDE9010560
:100B80004FF4A050039404904FF48050059001A8B6
:100B9000FFF7EEFC12B0B0BD4038024000700040DC
:100BA00010B50E480F4CD0F8801041F47001C0F819
:100BB00080100B490A6842F001020A6000228A6034
:100BC0000B6823400B60084B4B600B6823F48023B9
:100BD0000B60CA604FF00061016010BD08ED00E0DD
:100BE00000380240FFFFF6FE10300024FEE7000050
:100BF00010B5FFF737FCFFF78DFFFFF733FF084C09
:100C000020464FF40071FFF719FC20464FF4806135
:100C1000FFF714FC4FF4FA70FFF736FBF0E700BF64
:100C20000014024002E008C8121F08C1002AFAD1CD
:100C300070477047002001E001C1121F002AFBD15C
:100C400070470000000000000000010203040607D6
:100C500008090000780C00080000002010000000C7
:100C6000240C0008880C000810000020000400007C
:100C7000340C00080000000001000000100000001B
:080C8000000000000024F40054
:040000050800018965
:00000001FF
